:020000040000FA
:100000004884FF1F95020000C5020000C7020000DF
:10001000C9020000CB020000CD0200000000000079
:10002000000000000000000000000000CF020000FF
:10003000D102000000000000D3020000D502000041
:10004000D7020000D7020000D7020000D70200004C
:10005000D7020000D7020000D7020000D70200003C
:10006000D7020000D7020000D7020000D70200002C
:10007000D7020000D7020000D7020000D70200001C
:10028000DFF80CD000F0B8FB0048004789300000D0
:100290004884FF1F10484FF0770101600F484FF06E
:1002A000770101600E484FF4885101600A484FF011
:1002B0007601016009484FF07601016009488047E6
:1002C00009480047FEE7FEE7FEE7FEE7FEE7FEE738
:1002D000FEE7FEE7FEE7FEE7040805400C080540E0
:1002E00000080540F5030000810200002DE9F05FE1
:1002F0000546002092469B46884606468146402495
:100300001BE0284641464746224600F076F9534610
:100310005A46C01A914110D311461846224600F0A1
:100320005DF92D1A67EB01084F4622460120002196
:1003300000F054F917EB00094E41201EA4F101040E
:10034000DFDC484631462A464346BDE8F09FD2B23C
:1003500001E000F8012B491EFBD270470022F6E7AE
:1003600010B513460A4604461946FFF7F0FF20462B
:1003700010BD80EA010210B502F00043400022D017
:100380004A001FD0010E01EB1261C0F35600C2F308
:10039000560240F4000042F40002A0FB02200004D8
:1003A0007F39140400D0401C50EA124001D44000B0
:1003B000491EC2B20C0604EBD010401C4008802A33
:1003C00002D003E0002010BD20F00100002900DA77
:1003D0000020184310BD96230022114600F026B9D4
:1003E000002801DBC0F10040002901DBC1F1004120
:1003F0008142704700B502F065F900BD704700000A
:10040000FFFFFFFFFFFFFFFFFFFFFFFFFFFFFFFFFC
:10041000FFFFFFFFFFFFFFFFFFFFFFFFFFFFFFFFEC
:10042000F0B480EA0102D40F4200B2EB410F02D2D5
:100430000246084611464A0042D0C30DDDB2C1F360
:10044000C752AD1A202D35DAC1F3160141F400026E
:1004500004B15242C5F1200602FA06F12A411044C5
:10046000B3EBD05F23D0C4B1012DA0EBC35009DCA6
:10047000F0BC4FF0004202EAC352DBB200F50000CC
:1004800000F0D4B8400000F1807000EBC350A0F140
:10049000807040EAD170490009E0490841EAC07122
:1004A000A0EBC35000F50000400800EBC350F0BCC7
:1004B00000F0B3B86142012202EB4101001BF6E7F4
:1004C000F0BC704781F00041AAE780F00040A7E748
:1004D00030B480EA010202F0004530F0004221F021
:1004E000004013D090B1C30DD40DC2F31601C0F378
:1004F0001600E41A41F4000140F400027D349142F8
:1005000001D3641C00E04900002C02DA30BC00205A
:1005100070474FF400000023914201D3891A03432E
:1005200040084FEA4101F7D151B1914202D14FF059
:10053000004105E002D24FF0010101E06FF001013E
:1005400003EBC450284430BC00F067B820F00040F2
:10055000C10DC0F3160040F400007F2901DA00202D
:100560007047962903DCC1F19601C840704796395F
:100570008840704700F0004230F000400AD0C10DC2
:1005800001F56071C0F3160042EA0151C20840074C
:10059000114370470020014670470000002801DB2E
:1005A000C0F10040002901DBC1F1004188427047E1
:1005B00030B50B46014600202022012409E021FA33
:1005C00002F59D4205D303FA02F5491B04FA02F530
:1005D0002844151EA2F10102F1DC30BD202A04DB03
:1005E000203A00FA02F1002070479140C2F1200346
:1005F00020FA03F3194390407047202A04DB203A85
:1006000021FA02F00021704721FA02F3D040C2F132
:10061000200291400843194670470029A8BF70473F
:10062000401C490008BF20F00100704710B4B0FA28
:1006300080FC00FA0CF050EA010404BF10BC7047C3
:1006400049B1CCF1200421FA04F411FA0CF118BFDD
:10065000012121430843A3EB0C01CB1D4FEA0061AC
:100660004FEA102042BF002010BC704700EBC3507F
:1006700010440029A4BF10BC7047401C490008BFAB
:1006800020F0010010BC70472DE9FE4F804681EA42
:100690000300C00F0C46009021F0004123F00045FC
:1006A000B8EB0200A94105D24046214690461C46BF
:1006B0000B46024623F00040104347D0270DC7F3F6
:1006C0000A00C3F30A510290401A019040286BDAE5
:1006D000C3F3130040F4801B0098924620B100231E
:1006E000D2EB030A63EB0B0B01985946C0F14002B1
:1006F0005046FFF773FF06460D4650465946019A8D
:1007000000F08CF910EB08006141002487EA1152D7
:1007100084EAE7731A4340D0009A62B3019A012A2F
:100720004FEA075215DC001B61EB02014FF000425B
:1007300002EA0752CDE90042001C41F58011324621
:100740002B4600F08CF903B0BDE8F08F40462146FF
:10075000F9E7001B61EB0201001C41F58013001852
:100760005B412018A2F5001747EB030140EAD57062
:10077000B6196D4111E06D084FEA360645EAC075BD
:100780004FEA0752001B61EB0201001C41F580118A
:1007900049084FEA30000019514132462B4603B058
:1007A000BDE8F04F00F04CB9009801224000002352
:1007B000D0EB020263EBE073009821464FEAE0744D
:1007C000B8EB000061EB0401E9E783F000435BE76D
:1007D00081F0004158E72DE9FE4F81EA030404F05F
:1007E000004421F0004100944FF0000B23F000433F
:1007F00050EA01045ED052EA03045BD0C3F30A540A
:10080000C1F30A552C44A4F2F3340194A0FB025422
:10081000C1F3130141F48011C3F3130343F48013B4
:1008200001FB024400FB034E840A970A44EA815408
:1008300047EA8357A4FB076802958D0A05FB0785E5
:100840004FEA932C04FB0C542705029D4FEA0658EF
:1008500047EA1637B5EB08056EEB070C870E920ECC
:1008600047EA811742EA8312A7FB0201B6EB0B01AC
:1008700064EB00042B0D43EA0C335E1844EB1C5070
:10088000DA465146E7FB0201C5F313044FEA0B3386
:1008900043EA14534FEA0432019C43EA0603A4F1ED
:1008A0000C040294009CCDE900B400F0D8F803B029
:1008B000BDE8F08F00200146F9E72DE9F04D81EA0F
:1008C000030404F0004B21F0004514464FF0000AE9
:1008D00023F0004150EA050220D054EA01021DD065
:1008E000C5F30A570246C5F31303C1F31300C1F35E
:1008F0000A5640F4801543F48013A7EB0608101B3A
:10090000D64608F2FD3873EB050002D308F1010862
:1009100001E092185B41B8F1000F03DA00200146B4
:10092000BDE8F08D00204FF48011064684460EE0AD
:10093000171B73EB050705D3121B63EB0503064377
:100940004CEA010C49084FEA300092185B4150EA2A
:100950000107EDD152EA030012D082EA040083EAD3
:100960000501084305D0101BAB4106D2012200232C
:1009700006E000224FF0004302E06FF00102531046
:100980001AEB06004CEB085110EB0A0041EB0B018F
:10099000BDE8F04D00F054B8C1F30A52C1F31301A1
:1009A00040F2FF3341F480119A4202DA00200146FE
:1009B000704740F233439A42A2F2334202DC524281
:1009C000FFF71BBEFFF70ABE30B5041E71F100042D
:1009D00004DB4FF00044404264EB0101141E73F14C
:1009E000000405DB1C464FF00043524263EB040356
:1009F000994208BF904230BD064C074D06E0E068C2
:100A000040F0010394E8070098471034AC42F6D355
:100A1000FFF73AFC7431000094310000202A06DB15
:100A2000CB17203A41FA02F043EAE07306E041FABC
:100A300002F3D040C2F120029140084319467047AA
:100A400010B5141E73F1000408DA401C41F10001D6
:100A500092185B411A4301D120F0010010BD2DE92D
:100A6000F04D92469B4611B1B1FA81F202E0B0FA24
:100A700080F220329046FFF7B1FD04460F4640EA6F
:100A80000A0041EA0B0153465A46084313D0114667
:100A900053EA010019D0C8F140025046FFF7ADFDFE
:100AA00005460E46504659464246FFF797FD084315
:100AB00005D0012004E020463946BDE8F08D002035
:100AC000054346EAE0762C4337430A986305E40A77
:100AD000A0EB08000022FD0A44EA47540A3002D580
:100AE00000200146E9E7010510196941DDE90845E3
:100AF00000196941BDE8F04DA2E700002DE9F0477B
:100B000004460E464FF0040A002C50D0002E4ED062
:100B1000307901284BDC00BF2648844202D02648A9
:100B2000844200D104E040F2392124A001F088F988
:100B300000BF2048844216D13068C0F310053079D8
:100B400040B9A089A9B20843A081E08940EA1540D4
:100B5000E08116E0208AA9B208432082608A40EA38
:100B6000154060820DE03088C0F30805307920B967
:100B7000A089A9B20843A08103E0208AA9B2084352
:100B800020820027B84604F120090DE005F001009D
:100B900038B14046411C01F0FF08B268105C09F80A
:100BA00007006D08781CC7B2002DEFD1AA46504649
:100BB000BDE8F08700000440000404402E2E5C2EA7
:100BC0002E5C2E2E5C2E2E5C6472697665725C73D0
:100BD00072635C68633332663436785F6164632EB7
:100BE000630000002DE9F04104460D464FF0040873
:100BF000002C22D000BF1248844202D01148844207
:100C000000D104E040F203310FA001F019F900BF58
:100C10000B48844202D1C5F3100501E0C5F3080575
:100C2000AEB22F0CA08A3043A0820548844202D184
:100C3000E08A3843E0824FF000084046BDE8F0818A
:100C400000000440000404402E2E5C2E2E5C2E2E4C
:100C50005C2E2E5C6472697665725C7372635C688C
:100C6000633332663436785F6164632E630000005C
:100C700070B504460D46A4B100BF0A48844202D0B4
:100C80000948844200D104E040F2E34107A001F0AA
:100C9000D7F800BF94F846000121A940884384F8A2
:100CA000460070BD00000440000404402E2E5C2E5F
:100CB0002E5C2E2E5C2E2E5C6472697665725C73DF
:100CC00072635C68633332663436785F6164632EC6
:100CD0006300000070B504460D460426002C1FD0AA
:100CE00000BF1048844202D00F48844200D104E083
:100CF0004FF438710DA001F0A3F800BF00BF1DB183
:100D0000012D02DB072D00DC04E040F2E12107A009
:100D100001F096F800BF608865F30A206080002625
:100D2000304670BD00000440000404402E2E5C2EAE
:100D30002E5C2E2E5C2E2E5C6472697665725C735E
:100D400072635C68633332663436785F6164632E45
:100D5000630000002DE9F84F04460F4690461E46FA
:100D60000420009004F1500B002C35D0B8F1000F96
:100D700032D0002E30D000BF1948844202D019482A
:100D8000844200D104E040F29C5117A001F058F8D1
:100D900000BF1348844202D1C7F3100501E0C7F336
:100DA00008054FF00009CA4611E005F0010048B1FE
:100DB0003BF8190028F81A000AF1010000F0FF0AB8
:100DC000701EC6B26D0809F1010000F0FF090DB1F7
:100DD000002EEAD1002000900098BDE8F88F0000B6
:100DE00000000440000404402E2E5C2E2E5C2E2EAB
:100DF0005C2E2E5C6472697665725C7372635C68EB
:100E0000633332663436785F6164632E63000000BA
:100E100070B504460D46002600BF0B48844202D040
:100E20000A48844200D104E040F2C74108A001F022
:100E300007F800BF94F846000121A940084000B11E
:100E40000126304670BD000000000440000404404C
:100E50002E2E5C2E2E5C2E2E5C2E2E5C64726976FD
:100E600065725C7372635C68633332663436785FD4
:100E70006164632E6300000070B505460C460426CD
:100E8000002D78D0002C76D000BF3C48854202D09F
:100E90003B48854200D104E040F2051139A000F042
:100EA000CFFF00BF00BF2078022804D0207801289F
:100EB00001D0207800B904E04FF4837131A000F034
:100EC000BFFF00BF00BF607810B16078012800D17B
:100ED00004E040F207112BA000F0B2FF00BF00BFFA
:100EE000A078012801D0A07800B904E04FF4847103
:100EF00024A000F0A5FF00BF00BFE07840B1E0787B
:100F0000012805D0E078022802D0E078032800D13B
:100F100004E040F209111BA000F092FF00BF00BFE7
:100F2000207910B12079012800D104E04FF48571B7
:100F300014A000F085FF00BF002028702178688889
:100F400061F3051068806178688861F3C710688074
:100F5000A178688861F386106880E178688861F319
:100F6000010068802179A88861F38200A8800020B0
:100F700085F847000026304670BD000000000440A0
:100F8000000404402E2E5C2E2E5C2E2E5C2E2E5C39
:100F90006472697665725C7372635C68633332662F
:100FA0003436785F6164632E630000002DE9F84FEA
:100FB00004460E46154698464FF0040A4FF00009C5
:100FC0000027BB4600200090002C55D0002E53D0A7
:100FD000002D51D000BF2A48844202D029488442C3
:100FE00000D104E04FF4A36127A000F029FF00BF67
:100FF0002348844209D1112D02D34FF011090BE08F
:10100000E7893F04A089074306E0092D02D34FF08A
:10101000090901E01A4887890120207024480068E6
:101020000A21B0FBF1F04FF47A71B0FBF1F000FB54
:1010300008FB002000904FF0090A19E01D480068E5
:1010400098B1B9F1000F05D04A463146204600F06C
:1010500033F805E02B46324639462046FFF77AFE44
:10106000002014490860824605E00098401C00906A
:1010700000985845E2D300BF5046BDE8F88F000005
:1010800000000440000404402E2E5C2E2E5C2E2E08
:101090005C2E2E5C6472697665725C7372635C6848
:1010A000633332663436785F6164632E6300000018
:1010B0000080FF1FC008804230B5034603F1500492
:1010C000002005E034F8105021F81050451CE8B21B
:1010D0009042F7DB30BD000070B50446042584B1B2
:1010E00000BF0948844202D00848844200D104E08D
:1010F00040F2854106A000F0A3FE00BF0120207051
:101100000025284670BD0000000004400004044093
:101110002E2E5C2E2E5C2E2E5C2E2E5C647269763A
:1011200065725C7372635C68633332663436785F11
:101130006164632E6300000038B504460425002076
:101140000090F4B100BF1048844202D00F4884429E
:1011500000D104E040F2A2410DA000F071FE00BFFA
:1011600000250AE0002020700098401C42F2107117
:101170000090884201D9092502E020780128F1D0A9
:1011800000BF284638BD00000000044000040440B1
:101190002E2E5C2E2E5C2E2E5C2E2E5C64726976BA
:1011A00065725C7372635C68633332663436785F91
:1011B0006164632E6300000000B585B01EA0006866
:1011C00001901EA00068009000BF002002900390D4
:1011D000049000BF43F20140029000208DF80C0003
:1011E00001A80490022243F20141154800F08EF854
:1011F00002A91348FFF782FC04211148FFF76AFD9A
:101200004FF440510E48FFF7EDFC25200290CDF839
:1012100010D0022225210B4800F078F802A90948D5
:10122000FFF76CFC05210748FFF754FD2021054816
:10123000FFF7D8FC05B000BD308050606050400022
:10124000000004400004044000B587B000BF002047
:10125000069000BF00BF142101A8FFF77FF800BF70
:1012600001208DF8180000208DF8190002208DF85B
:101270001A0006A800F0BAFD012000F035FD02209A
:1012800005903C20049010200190029003900020D3
:1012900000F086FA01A800F04DFC012000F0F8FBF8
:1012A0000D2000F047FA07B000BD10B5FFF7CCFFE6
:1012B00000F004F8FFF780FF10BD00001CB500BF70
:1012C00000200090019000BF8DF800008DF8010013
:1012D0008DF802008DF803000121084600F0B6FFEA
:1012E00069460848FFF7C8FD01208DF800008DF819
:1012F00003000121022000F0A9FF69460248FFF720
:10130000BBFD1CBD00000440000404402DE9F04179
:1013100006460C4617464FF000080D48864201D19C
:10132000A4B202E0E4B24FF0040800250BE004F0A0
:10133000010028B105EB0801C8B2394600F00AF8EF
:101340006408681CC5B2002CF1D1BDE8F081000032
:10135000000004402DE9FC4104460D46002601270B
:101360004FF0010800BF00200090019000BF8DF8F1
:1013700000508DF80400102C39D2DFE804F0080B7F
:101380000E1114171A1D202326292C2F3235002662
:1013900001272FE0002602272CE00026042729E061
:1013A0000026082726E00026102723E00026202715
:1013B00020E0002640271DE0002680271AE00126B5
:1013C000012717E00126022714E00226012711E079
:1013D000022602270EE0022604270BE00226082739
:1013E00008E00226102705E00226202702E04FF041
:1013F000000800BF00BFB8F1010F04D16A463946AA
:10140000304600F00FFEBDE8FC81000070B50446D8
:1014100000BF3CB1012C05D0022C03D0032C01D01D
:10142000042C00D104E040F267611EA000F008FD2A
:1014300000BF34B1012C0DD0022C14D0032C24D1C8
:101440001AE02248007800F0010080F0010080F0EE
:10145000010524E01D480078C0F3C00080F00100C1
:1014600080F001051BE019480078C0F3401080F0BF
:10147000010080F0010512E014480078C0F38010EC
:1014800080F0010080F0010509E01048401D00785F
:1014900000F0010080F0010080F0010500BF00BFF6
:1014A000284670BD2E2E5C2E2E5C2E2E5C2E2E5CC1
:1014B0006472697665725C7372635C68633332660A
:1014C0003436785F636C6B2E630000003C4005404F
:1014D000F8B5044600200090002600BF0CB1012C96
:1014E00000D104E040F249311CA000F0A9FC00BF8B
:1014F0004AF201502349088094B92348007800F04B
:101500000700052801D1012621E01F48001D0078B1
:1015100020F00100401C1C49263981F82A0016E001
:101520001948001D007820F001001749263981F87C
:101530002A0000BF0220FFF769FF05460098401C03
:1015400000900098B0F5805F01D2012DF2D14FF4E8
:1015500025400C4908803046F8BD00002E2E5C2E38
:101560002E5C2E2E5C2E2E5C6472697665725C7326
:1015700072635C68633332663436785F636C6B2EFB
:1015800063000000FE4305402640054070B5044658
:1015900000250026002C7DD000BF2068022803D340
:1015A0002068102800D804E040F219314FA000F064
:1015B00047FC00BF00BF6068012803D360681028A3
:1015C00000D804E040F21A3148A000F039FC00BF16
:1015D00000BFA068022803D3A068102800D804E048
:1015E00040F21B3141A000F02BFC00BF00BFE068BF
:1015F000142804D3E068B0F5F07F00D804E04FF47D
:1016000047713AA000F01CFC00BF00BF2069012810
:1016100003D32069182800D804E040F21D3133A01C
:1016200000F00EFC00BF3B480068C0F3C01008B9D2
:10163000394800E039482169B0FBF1F5E06800FB6A
:1016400005F600BF3648854203D33648854200D8A8
:1016500004E040F2233125A000F0F2FB00BF00BF00
:101660003148864203D34000864200D804E04FF45C
:1016700049711EA000F0E4FB00BF4AF201502B4963
:1016800008802078401E2A49D1F8001160F31F71AC
:10169000204800E029E001602079401E2449D1F86B
:1016A000001160F31B611B480160207A401E204935
:1016B000D1F8001160F3175116480160A089401E4F
:1016C0001B49D1F8001160F3102112480160207C01
:1016D000401E1749D1F8001160F304010D48016064
:1016E0004FF425401249A1F8FE0370BD2E2E5C2E4A
:1016F0002E5C2E2E5C2E2E5C6472697665725C7395
:1017000072635C68633332663436785F636C6B2E69
:10171000630000000041054000127A000024F4003C
:1017200040420F0000366E01001C4E0EFE43054085
:101730000040054010B5044600BF1CB1082C02DB78
:101740000D2C00DC04E040F26A5109A000F078FBA7
:1017500000BF4AF20250104908801048008A64F322
:1017600003000E4908824FF42540A1F8FE0310BD86
:101770002E2E5C2E2E5C2E2E5C2E2E5C64726976D4
:1017800065725C7372635C68633332663436785FAB
:10179000636C6B2E63000000FE4305400040054073
:1017A00010B5044600BF0CB1012C00D104E04FF489
:1017B0003F710AA000F044FB00BF4AF201501149FA
:1017C00008801148D0F8000164F3C7100F49086081
:1017D0004FF425400C49A1F8FE0310BD2E2E5C2EBF
:1017E0002E5C2E2E5C2E2E5C6472697665725C73A4
:1017F00072635C68633332663436785F636C6B2E79
:1018000063000000FE4305400040054000410540E4
:1018100010B586B00446002005903048006804905A
:101820002E48406803902D48806802902B48C0687D
:10183000019000BF1CB1012C02DB052C00DC04E090
:1018400040F2D63126A000F0FBFA00BF2E48007807
:1018500000F00700052801D0052C0DD12B481F49A9
:101860000860C01248608860C86000BF0598401CCE
:1018700005900598B028F9D34AF201502449088010
:101880002148263890F8260064F302001E490870AB
:101890004FF425401C492639A1F8FE03002005908D
:1018A00000BF0598401C05900598B028F9D30B4956
:1018B0000498086003984860029888600198C8609E
:1018C0000020059000BF0598401C05900598B028A1
:1018D000F9D300F0F7FE06B010BD00000080044010
:1018E0002E2E5C2E2E5C2E2E5C2E2E5C6472697663
:1018F00065725C7372635C68633332663436785F3A
:10190000636C6B2E6300000026400540EEFAFFFF7B
:10191000FE43054010B586B00446002005904E48B1
:10192000006804904C48406803904B4880680290DF
:101930004948C0680190002C7ED000BF2078E17833
:10194000884232DC2078617988422EDC2078A179C7
:1019500088422ADCA078E178884226DCA078617988
:10196000884222DC2079A179401A03281CD02079F2
:10197000A179401A022817D02079A179401A0128AC
:1019800012D02079A179401A0ED0A0792179401A7D
:10199000012809D0A0792179401A022804D0A07921
:1019A0002179401A032800D104E040F22F412BA0F6
:1019B00000F046FA00BF3348007800F00700052821
:1019C0000DD1314824490860C01248608860C86061
:1019D00000BF0598401C05900598B028F9D34AF23D
:1019E00001502A490880A078E17840EA0110217965
:1019F00040EA0120617940EA0130A17940EA0140E2
:101A0000617840EA0150217840EA01601D49263999
:101A100008624FF42540A1F8FE030020059000BFA6
:101A20000598401C05900598B028F9D30A490498F8
:101A300008600398486000E00CE002988860019814
:101A4000C8600020059000BF0598401C05900598CF
:101A5000B028F9D306B010BD008004402E2E5C2EB5
:101A60002E5C2E2E5C2E2E5C6472697665725C7321
:101A700072635C68633332663436785F636C6B2EF6
:101A80006300000026400540EEFAFFFFFE430540DC
:101A900038B504460020009000BF0CB1012C00D1E5
:101AA00004E040F2AB3117A000F0CAF900BF4AF2DF
:101AB00001501E490880012C01D0012000E00020C7
:101AC0001B49097860F3000119482E3880F82E1060
:101AD0004FF425401549088000BF0320FFF796FC0E
:101AE00005460098401C00900098B0F5805F06D233
:101AF000012C01D1012000E00020A842EDD10020FE
:101B000038BD00002E2E5C2E2E5C2E2E5C2E2E5C00
:101B10006472697665725C7372635C6863333266A3
:101B20003436785F636C6B2E63000000FE43054023
:101B30002E40054070B5044600250026002C7DD0BF
:101B400000BF2068022803D32068102800D804E0D2
:101B500040F27B3152A000F073F900BF00BF606813
:101B6000022803D36068102800D804E04FF45F71A6
:101B70004BA000F065F900BF00BFA068022803D3A6
:101B8000A068102800D804E040F27D3144A000F0A5
:101B900057F900BF00BFE068142804D3E068B0F52F
:101BA000F07F00D804E040F27E313DA000F048F91B
:101BB00000BF00BF2069022803D32069182800D87D
:101BC00004E040F27F3136A000F03AF900BF3E4811
:101BD0000068C0F3C01008B93C4800E03C482169E7
:101BE000B0FBF1F5E06800FB05F600BF394885421F
:101BF00003D33948854200D804E040F2863128A05A
:101C000000F01EF900BF00BF3448864203D34000F5
:101C1000864200D804E040F2873121A000F010F99C
:101C200000BF4AF201502E4908802078401E2D49FD
:101C3000D1F8041160F31F71234800E02EE0001D6D
:101C400001602079401E2749D1F8041160F31B611F
:101C50001D48001D0160207A401E2249D1F8041160
:101C600060F317511848001D0160A089401E1D49EE
:101C7000D1F8041160F310211348001D0160207C8D
:101C8000401E1849D1F8041160F304010E48001DEC
:101C900001604FF425401349A1F8FE0370BD000018
:101CA0002E2E5C2E2E5C2E2E5C2E2E5C647269769F
:101CB00065725C7372635C68633332663436785F76
:101CC000636C6B2E630000000041054000127A0037
:101CD0000024F40040420F0000366E01001C4E0E3E
:101CE000FE43054000400540F8B504460020009042
:101CF000002600BF0CB1012C00D104E04FF4D071DC
:101D00002EA000F09DF800BF00BF0CB1012C00D147
:101D100004E04FF4D17129A000F092F800BF4AF21C
:101D20000150304908805CBB2F48007800F0070064
:101D3000032801D101263AE02B48DA300068C0F3CD
:101D4000C01090B92848001D007800F0010008B9C3
:101D500001262CE024480C30007820F00100401CC3
:101D60002149263981F8320021E01F480C300078E3
:101D700020F00100401C1C49263981F8320016E091
:101D800019480C30007820F001001749263981F8F5
:101D9000320000BF0120FFF739FB05460098401CC8
:101DA00000900098B0F5805F01D2012DF2D14FF480
:101DB00025400C4908803046F8BD00002E2E5C2ED0
:101DC0002E5C2E2E5C2E2E5C6472697665725C73BE
:101DD00072635C68633332663436785F636C6B2E93
:101DE00063000000FE4305402640054018B34AF258
:101DF0000151114A118002780F491231097862F3BA
:101E0000C7110D4A1232117042780B49123109780C
:101E100062F38611084A1232117082780649123133
:101E2000097862F30511044A123211704FF425410A
:101E3000024AA2F8FE137047FE43054000400540E9
:101E400004460D462A46214602A000F09DFC00BF34
:101E5000FEE7000057726F6E6720706172616D65FA
:101E6000746572732076616C75653A2066696C657D
:101E7000202573206F6E206C696E652025640D0A25
:101E80000000000008B5002200920021094A1168F4
:101E900042F21072B1FBF2F106E0009100BF009A2D
:101EA000531E0093002AFAD1021EA0F10100F4D1C2
:101EB00008BD00000080FF1F10B500244AF2015049
:101EC000204908802048008820F03F0020301E492B
:101ED00008804FF425401B4908801C48406820F0CA
:101EE00080601A4948601A48C06820F0805018493C
:101EF000C8600846C06820F08070C8600846C068A6
:101F000020F4004000F50040C8600846C06820F496
:101F10008050C8600846C06820F48060C8604FF4F4
:101F2000E13000F0B9FA08B1012409E000200849C5
:101F3000086148610846C06820F008000830C860A1
:101F4000204610BDFC3B0540163D05400080044086
:101F5000001002400449486000BF03490968C1F30A
:101F600080110029F9D07047001002400448006831
:101F7000012804D143F2102001490860086070472D
:101F80000004014010B5044600BFECB1012C1BD089
:101F9000022C19D0032C17D0042C15D0052C13D0EB
:101FA000062C11D0072C0FD0082C0DD0092C0BD0EB
:101FB0000A2C09D00B2C07D00C2C05D00D2C03D0EB
:101FC0000E2C01D00F2C00D103E0FD2105A0FFF75E
:101FD00037FF00BF0D48006864F307100B49086025
:101FE00010BD00002E2E5C2E2E5C2E2E5C2E2E5C44
:101FF0006472697665725C7372635C6863333266BF
:102000003436785F65666D2E630000000804014079
:1020100040F223100249086043F210200860704724
:10202000000401402DE9F047064689461446002782
:1020300000BF4EB1012E07D0022E05D0032E03D0D3
:10204000042E01D0052E00D104E040F213116CA043
:10205000FFF7F6FE00BF00BF207828B120780128E6
:1020600002D02078022800D104E040F2151164A0CB
:10207000FFF7E6FE00BF00BF607928B16079012854
:1020800002D06079022800D104E04FF48B715CA08B
:10209000FFF7D6FE00BF00BFA07910B1A0790128DC
:1020A00000D104E040F2171155A0FFF7C9FE00BFB0
:1020B00000BF607810B16078012800D104E04FF4CF
:1020C0008C714FA0FFF7BCFE00BF00BFA07810B11D
:1020D000A078012800D104E040F2191148A0FFF7D0
:1020E000AFFE00BF00BFE07810B1E078012800D15A
:1020F00004E04FF48D7142A0FFF7A2FE00BF00BFC5
:10210000207910B12079012800D104E040F21B11A0
:102110003BA0FFF795FE00BF00BFE07910B1E0796A
:10212000012800D104E04FF48E7135A0FFF788FE3E
:1021300000BF00F083F800275AE00120B84000EA11
:10214000090078B3384800EB861000EB8705364865
:10215000801C00EB861000EB87086178288861F30B
:102160008E302880A178288861F30C302880E178AF
:10217000288861F3492028802179288861F3861016
:102180002880A179288861F38200288061792888D5
:1021900061F305102880207828B101280CD002288E
:1021A0001BD113E022E0288820F4004028802888F2
:1021B00020F00200288011E0288820F400402880C8
:1021C000288820F00200801C288007E0288820F45E
:1021D000004000F50040288000E000BF00BFE1792A
:1021E000B8F8000061F30820A8F80000781CC7B216
:1021F000102FA2D300F01AF80020BDE8F0870000ED
:102200002E2E5C2E2E5C2E2E5C2E2E5C6472697639
:1022100065725C7372635C68633332663436785F10
:102220006770696F2E630000003C05404FF4254045
:102230000149088070470000FC3B05404AF201500C
:102240000149088070470000FC3B054070B504461A
:102250000D4600BF41F2131024EA000008B904B192
:1022600004E040F23F310EA0FFF7EAFD00BF00BFDF
:102270000DB1012D00D104E04FF4507108A0FFF71B
:10228000DFFD00BF012D05D10F48C068A0430E49F6
:10229000C86004E00C48C06820430B49C86070BDAA
:1022A0002E2E5C2E2E5C2E2E5C2E2E5C6472697699
:1022B00065725C7372635C68633332663436785F70
:1022C0007077632E6300000000800440762002498E
:1022D00008600020704700000C0805407720024984
:1022E00008600020704700000C0805402DE9F0410F
:1022F00004460026002700BF6078A0B1607801285E
:1023000011D0607802280ED0607803280BD0607856
:10231000042808D06078052805D06078062802D007
:102320006078072800D103E0F42148A0FFF788FD7A
:1023300000BF00BFA078A0B1A078012811D0A0787C
:1023400002280ED0A07803280BD0A078042808D04B
:10235000A078052805D0A078062802D0A078072804
:1023600000D103E0F52139A0FFF76AFD00BF00BFEF
:10237000E07840B1E078012805D0E078022802D06A
:10238000E078032800D103E0F62130A0FFF758FDE4
:1023900000BF00BF207910B12079012800D103E0EF
:1023A000F7212AA0FFF74CFD00BF00BF607910B1F4
:1023B0006079012800D103E0F82124A0FFF740FD57
:1023C00000BF25780DB904273CE000F05DF8FFF769
:1023D00085FF002610E005F0010050B16078A1787B
:1023E00040EA0110F1008840224909680843214968
:1023F00008606D10701CC6B2042EECD3207800F07B
:10240000020090B1E1781B480830006861F3196060
:10241000184908310860217916480830006861F3CE
:10242000104014490831086008E06179114808300B
:10243000006861F300000F490831086000F01CF8E3
:10244000FFF744FF3846BDE8F08100002E2E5C2ED9
:102450002E5C2E2E5C2E2E5C6472697665725C7327
:1024600072635C68633332663436785F7372616DB1
:102470002E63000000080540762002490860002015
:1024800070470000040805407720024908600020DA
:1024900070470000040805402DE9F04F8BB08246DC
:1024A00000200A90834600BF0024401E09900020AF
:1024B000089007905448006AC0F302110120884038
:1024C00052490968B1FBF0F00890514880698007D3
:1024D000410F012088400899B1FBF0F00790564663
:1024E000DDF81C90B9F1000F02D104200A9086E0BB
:1024F0004748C068C0F3C0352846FDF76CFF4FF071
:1025000080410190FDF7E1FF03903046FDF763FF46
:102510004FF082410190FDF72CFF02900399FDF7E7
:1025200028FF05904846FDF756FF04900599FDF7F2
:10253000CFFF4FF07E510690FDF7C4FF834658460B
:10254000FEF704F8044600215846FDF749FF01D381
:10255000FF2C02D904200A9051E02046FDF73BFFF2
:1025600059460590FDF7B1FF2A490690FEF716F887
:102570002BD2002210461346D5F1020260EB030075
:1025800000214FF0010C14EB0C0C41EB0103A2FBFA
:102590000C1E00FB0CE002FB03020020A1FB0673F3
:1025A00002FB063201FB00284FF400610022A7FB6A
:1025B000010308FB013107FB02114A460023CDE964
:1025C0000401FDF793FE803809900998B0F1FF3FB0
:1025D00001D0012100E000210D48C06861F35D7069
:1025E0000B49C8600998896860F306010848816052
:1025F000806864F30F200649886000200A900A98DA
:102600000BB0BDE8F08F0000004005400080FF1FC8
:1026100000100240ACC5273700B589B000BF0020CC
:10262000089000BF00BF142103A8FDF797FE00BF6C
:102630002348FFF76FF901208DF8200000208DF866
:10264000210002208DF8220008A8FFF7CFFB01200F
:10265000FFF74AFB012007902A20069002200390F2
:102660001020049005900020FFF79AF803A8FEF7C9
:102670008DFFFFF7CDFC0520FFF784FCFFF776FC0C
:102680000B208DF8040001208DF805008DF8060060
:1026900000208DF807008DF808008DF8090001A8CA
:1026A000FFF724FE0120FEF713FF00BF0220FEF714
:1026B000ADFE0128FAD10520FFF7AAF809B000BD48
:1026C0000480FF1F70B50024132001210022002385
:1026D000294D2D7805F00704062C4AD2DFE804F0D6
:1026E00003070B101419254D254E356041E0254D8B
:1026F000234E35603DE04FF40045214E356038E013
:10270000204D1F4E356034E04FF400451C4E3560BF
:102710002FE0194DDA352D68C5F3C013164D263D4F
:10272000D5F80051C5F30820134DDA352D68290F6F
:10273000114D263DD5F8005105F01F025BB9551C1F
:10274000104EB6FBF5F5461C75434E1CB5FBF6F571
:102750000B4E35600CE0012B0AD1551C074EB6FB21
:10276000F5F5461C75434E1CB5FBF6F5044E356079
:1027700000BF00BF70BD0000264005400024F400EB
:102780000080FF1F00127A000FB4054B10B503A99B
:10279000044A029800F0D8F810BC5DF814FB000061
:1027A000773000000C80FF1F02E008C8121F08C12C
:1027B000002AFAD17047002001E001C1121F002A4F
:1027C000FBD170472DE9FF5F82B00021DDE90430C5
:1027D000020DDDF840B0034318D044F61050A2F2C9
:1027E000FF3242431514119801281FD0A5EB0B00AE
:1027F000401C5FEA000A4FF000064E4FDFF83891A8
:10280000B046504615D5CAF1000413E011980124D2
:102810004AA3012801D16FEA0B010298119AC0E97D
:102820000031C0E9024206B0BDE8F09FCBF10000E4
:10283000DFE704460021404A491842EB0450CDE945
:10284000001012E0E00707D032463B4640464946BA
:10285000FDF7C1FF8046894632463B461046194681
:10286000FDF7B9FF06460F466410002CEAD1DDE9FA
:102870000401DDE90023BAF1000F06DAFDF7ABFF32
:1028800042464B46FDF7A7FF05E0FEF716F8424625
:102890004B46FEF712F804460E460022284BFEF780
:1028A00093F803D84FF0FF30014607E00022254B94
:1028B00020463146FDF7E8FEFEF76EF8102409E0E9
:1028C000002C0ADB0A220023FDF710FD039B3032A7
:1028D0001A55641E50EA0102F2D1641C039AC4F135
:1028E00011031444119A012A03D0012208430DD187
:1028F0000AE0084304D000204FF0110B119072E75A
:10290000A3EB0B056D1E0DE05B4504DD4FF00002EF
:1029100005F1010504E003DA4FF00002A5F101051D
:10292000002AECD002981199C0E90231C0E90045B3
:1029300079E70000000014400000F03F3000000084
:102940000000F0430000E03F2DE9FF4F95B09B46AB
:102950008946064600250FE2252877D10024274620
:10296000F84A0121059400E0044316F8013F203B9A
:1029700001FA03F01042F7D130782A2811D06FF015
:102980002F033078A0F13002092A16D8059A44F0B6
:10299000020402EB820203EB42021044761C059013
:1029A000EFE759F8042B0592002A03DA504244F469
:1029B0000054059044F00204761C30782E2816D17D
:1029C00016F8010F44F004042A280DD06FF02F02EE
:1029D0003078A0F13003092B09D807EB870302EB0D
:1029E0004303C718761CF3E759F8047B761C30784C
:1029F0006C280FD006DC4C2817D068280DD06A2828
:102A000014D104E0742810D07A280FD10DE044F4DA
:102A100000140AE044F4801401E044F44014727895
:102A2000824202D104F58014761C761C3078662828
:102A30000BD013DC582877D009DC002875D0452846
:102A4000F6D04628F4D047281AD19DE118E0632833
:102A500035D0642879D0652812D195E1702873D0DB
:102A600008DC6728F1D069286FD06E280DD06F2858
:102A700006D1B5E073282CD0752875D0782874D08D
:102A80005A46179990476D1C75E1C4F3025002280D
:102A900009D003280DD0D9F8001004280DD00D60FE
:102AA00009F1040967E1D9F80010EA17C1E90052F9
:102AB000F6E7D9F800100D80F2E70D70F0E719F88D
:102AC000041B8DF8001000208DF80100EA4601205B
:102AD00003E059F804AB4FF0FF3061074FF00001FD
:102AE00002D40DE008F101018846B9420FDA8045B1
:102AF000F8DB1AF808100029F4D108E008F1010108
:102B000088468142FADB1AF808100029F6D10598A8
:102B10005B46A0EB080721463846179A00F094FA66
:102B2000284400EB080507E04DE029E10DE01AF824
:102B3000010B5A4617999047B8F10108F7D25B4646
:102B400021463846179A13E142E00A220092C4F364
:102B500002524FF0000A022A08D059F804CB032A87
:102B60004FEAEC710AD00DE029E02AE009F10701F3
:102B700021F00702F2E802C1914609E00FFA8CFC4D
:102B80004FEAEC71042A03D14FFA8CFC4FEAEC7146
:102B9000002907DA0A460021DCF1000C61EB020192
:102BA0002D2202E0220504D52B228DF804200122DB
:102BB00003E0E20701D02022F7E7904659E00A211E
:102BC00002E010220DE010214FF0000A00910BE00E
:102BD00010224FF0000A44F004040827009203E09A
:102BE00008224FF0000A0092C4F30252022A05D0D4
:102BF00059F804CB0021032A08D009E009F10701A4
:102C000021F00702F2E802C1914605E01FFA8CFCB0
:102C1000042A01D10CF0FF0C4FF00008220728D540
:102C2000702806D0009B83F0100353EA0A0305D0F6
:102C30000EE040228DF80420012208E05CEA010247
:102C400006D030228DF804208DF80500022290462F
:102C5000009B83F0080353EA0A030AD15CEA0102ED
:102C600001D1620705D530228DF804204FF001080C
:102C70007F1E582804D034A003900EA802900DE0C7
:102C800036A0F9E753466046009AFDF72FFB8446CD
:102C90000398825C0298401E029002705CEA010078
:102CA000F0D1029806A9081A00F1200A600702D59F
:102CB00024F4803400E00127574502DDA7EB0A0029
:102CC00000E0002000EB0A01009005984144401A02
:102CD0000590E00306D45B462146179A059800F05C
:102CE000B3F90544002706E001A85A46C05D1799CC
:102CF00090476D1C7F1C4745F6DBE0030CD55B4617
:102D00002146179A059800F09FF9054404E0302009
:102D10005A46179990476D1C0099481E009000294B
:102D2000F5DC08E0029802995A460078491C0291A5
:102D3000179990476D1CBAF10001AAF1010AF1DC64
:102D400065E100000928010030313233343536376F
:102D500038396162636465660000000030313233E7
:102D60003435363738394142434445460000000087
:102D700000F058F90544761C307800287FF4ECAD5B
:102D800019B02846BDE8F08F620700D4062709F184
:102D9000070222F0070CFCE80223E14603F000489A
:102DA0005FEA080C02D00FF2702C0DE05FEA045CC1
:102DB00002D50FF2682C07E05FEAC47C02D00FF264
:102DC000602C01E0AFF2700C4FF0FF3823F00043AD
:102DD000CDF850C065280CD006DC452809D046281F
:102DE0001DD047283DD13DE0662818D067287ED108
:102DF00038E00021112F01DB112000E0781CCDE923
:102E0000000106A90EA8FFF7DDFCDDE90F010E9A0F
:102E100003910021009207F1010A04914DE04FF067
:102E200000400097CDE9011006A90EA8FFF7CAFCE3
:102E3000DDE90F0203920E9B11990022DDF80CA030
:102E40000093049211B9791C00EB010AB7EB0A0058
:102E500004D4C0F1FF3007F1010A0490AAEB070087
:102E6000019044E0012F00DA01270021112F01DD3C
:102E7000112000E03846CDE9000106A90EA8FFF7B1
:102E8000A1FCDDE90F010E9A03910021049100924B
:102E9000BA4621070CD40399514500DA8A46BAF1A3
:102EA000010F05DD009AAAF10101515C302908D01B
:102EB000B84202DA10F1040F06DA0121CDE901105F
:102EC00015E0AAF10101E9E7002805DC04990144B5
:102ED0000491AAEB000102E0411C514500DD8A4645
:102EE0000499401A401C01904FF0004002902007C6
:102EF00004D40198504501DBCDF8048000208DF802
:102F00004F0002980DF14F07B0F1004F25D02B2054
:102F10000E9002984FF0020800280CDA404202900E
:102F20002D200E9007E00A210298FDF741FB303179
:102F3000029007F8011DB8F10001A8F10108F2DCC8
:102F400002980028EFD1791E0E980870307800F0B2
:102F5000200040F0450007F8020D12A8C01B00F148
:102F600007081498007800B1012000EB0A010198CD
:102F700001EBE07105984144401A401E0590E003C2
:102F800006D45B462146179A059800F05DF8054483
:102F90001498007818B15A46179990476D1CE003B1
:102FA00024D55B462146179A059800F04DF8054454
:102FB0001CE00498002807DBDDE90301884203DDFB
:102FC0000098405C179901E0179930205A469047C5
:102FD000049805F10105401C04900198401E0190E1
:102FE00004D12E205A46179990476D1CBAF1000162
:102FF000AAF1010ADDDC05E017F8010B5A46179922
:1030000090476D1CB8F10001A8F10108F4DC5B46A3
:103010002146179A0598ABE62D0000002B00000012
:10302000200000002DE9F041044600251E46174609
:10303000880404D405E039462020B0476D1C641E86
:10304000F9D52846BDE8F0812DE9F0410446002578
:103050001E469046C80301D5302700E0202788048B
:1030600004D505E041463846B0476D1C641EF9D5CD
:103070002846BDE8F08100B502460B46D0B2FEF707
:1030800069FF104600BD0000FFF7C6FAFEF70DF914
:10309000FEF712FF0A23112223492448FDF786FF79
:1030A00000242348FEF718F811E000212048FDF71E
:1030B000AFFE01280BD103231E4A25211C48FDF732
:1030C00049FE00211A48FDF7D3FD601CC4B2032C51
:1030D000EBD31748FEF730F824E00A2311221249F7
:1030E0001248FDF763FF1048818A13A0FFF74CFBDD
:1030F0000D49888AFDF76FF981461549FDF739F9C1
:1031000006464FF08B41FDF7E3F90546FDF732FA2D
:1031100007463A460B460FA0FFF736FB4FF4FA700E
:10312000FEF7B0FED9E700001080FF1F000004404A
:10313000000404403280FF1F0A41444331325F499A
:103140004E31302076616C75652025642E000000BC
:10315000986E52400A41444331325F494E3130202B
:10316000766F6C7461676520697320252E3466560E
:103170002E000000943100000080FF1F10000000AE
:10318000A8270000A43100001080FF1F38040000B1
:10319000B627000000127A000001000102020100BF
:0431A000000000002B
:040000050000028174
:00000001FF
